{
	"contracts/MappingContract.sol": {
		"SimpleBankWithdraw": {
			"abi": [
				{
					"inputs": [
						{
							"internalType": "address",
							"name": "",
							"type": "address"
						}
					],
					"name": "balances",
					"outputs": [
						{
							"internalType": "uint256",
							"name": "",
							"type": "uint256"
						}
					],
					"stateMutability": "view",
					"type": "function"
				},
				{
					"inputs": [],
					"name": "checkBalance",
					"outputs": [
						{
							"internalType": "uint256",
							"name": "",
							"type": "uint256"
						}
					],
					"stateMutability": "view",
					"type": "function"
				},
				{
					"inputs": [],
					"name": "deposit",
					"outputs": [],
					"stateMutability": "payable",
					"type": "function"
				},
				{
					"inputs": [
						{
							"internalType": "uint256",
							"name": "_amount",
							"type": "uint256"
						}
					],
					"name": "withdraw",
					"outputs": [],
					"stateMutability": "nonpayable",
					"type": "function"
				}
			],
			"devdoc": {
				"kind": "dev",
				"methods": {},
				"version": 1
			},
			"evm": {
				"assembly": "    /* \"contracts/MappingContract.sol\":60:659  contract SimpleBankWithdraw {... */\n  mstore(0x40, 0x80)\n  callvalue\n  dup1\n  iszero\n  tag_1\n  jumpi\n  0x00\n  dup1\n  revert\ntag_1:\n  pop\n  dataSize(sub_0)\n  dup1\n  dataOffset(sub_0)\n  0x00\n  codecopy\n  0x00\n  return\nstop\n\nsub_0: assembly {\n        /* \"contracts/MappingContract.sol\":60:659  contract SimpleBankWithdraw {... */\n      mstore(0x40, 0x80)\n      jumpi(tag_1, lt(calldatasize, 0x04))\n      shr(0xe0, calldataload(0x00))\n      dup1\n      0x27e235e3\n      eq\n      tag_2\n      jumpi\n      dup1\n      0x2e1a7d4d\n      eq\n      tag_3\n      jumpi\n      dup1\n      0xc71daccb\n      eq\n      tag_4\n      jumpi\n      dup1\n      0xd0e30db0\n      eq\n      tag_5\n      jumpi\n    tag_1:\n      0x00\n      dup1\n      revert\n        /* \"contracts/MappingContract.sol\":101:142  mapping (address => uint) public balances */\n    tag_2:\n      callvalue\n      dup1\n      iszero\n      tag_6\n      jumpi\n      0x00\n      dup1\n      revert\n    tag_6:\n      pop\n      tag_7\n      0x04\n      dup1\n      calldatasize\n      sub\n      dup2\n      add\n      swap1\n      tag_8\n      swap2\n      swap1\n      tag_9\n      jump\t// in\n    tag_8:\n      tag_10\n      jump\t// in\n    tag_7:\n      mload(0x40)\n      tag_11\n      swap2\n      swap1\n      tag_12\n      jump\t// in\n    tag_11:\n      mload(0x40)\n      dup1\n      swap2\n      sub\n      swap1\n      return\n        /* \"contracts/MappingContract.sol\":312:523  function withdraw(uint _amount) public {... */\n    tag_3:\n      callvalue\n      dup1\n      iszero\n      tag_13\n      jumpi\n      0x00\n      dup1\n      revert\n    tag_13:\n      pop\n      tag_14\n      0x04\n      dup1\n      calldatasize\n      sub\n      dup2\n      add\n      swap1\n      tag_15\n      swap2\n      swap1\n      tag_16\n      jump\t// in\n    tag_15:\n      tag_17\n      jump\t// in\n    tag_14:\n      stop\n        /* \"contracts/MappingContract.sol\":557:654  function checkBalance() public view returns (uint) {... */\n    tag_4:\n      callvalue\n      dup1\n      iszero\n      tag_18\n      jumpi\n      0x00\n      dup1\n      revert\n    tag_18:\n      pop\n      tag_19\n      tag_20\n      jump\t// in\n    tag_19:\n      mload(0x40)\n      tag_21\n      swap2\n      swap1\n      tag_12\n      jump\t// in\n    tag_21:\n      mload(0x40)\n      dup1\n      swap2\n      sub\n      swap1\n      return\n        /* \"contracts/MappingContract.sol\":185:271  function deposit() public payable {... */\n    tag_5:\n      tag_22\n      tag_23\n      jump\t// in\n    tag_22:\n      stop\n        /* \"contracts/MappingContract.sol\":101:142  mapping (address => uint) public balances */\n    tag_10:\n      mstore(0x20, 0x00)\n      dup1\n      0x00\n      mstore\n      keccak256(0x00, 0x40)\n      0x00\n      swap2\n      pop\n      swap1\n      pop\n      sload\n      dup2\n      jump\t// out\n        /* \"contracts/MappingContract.sol\":312:523  function withdraw(uint _amount) public {... */\n    tag_17:\n        /* \"contracts/MappingContract.sol\":394:401  _amount */\n      dup1\n        /* \"contracts/MappingContract.sol\":370:378  balances */\n      0x00\n        /* \"contracts/MappingContract.sol\":370:390  balances[msg.sender] */\n      dup1\n        /* \"contracts/MappingContract.sol\":379:389  msg.sender */\n      caller\n        /* \"contracts/MappingContract.sol\":370:390  balances[msg.sender] */\n      0xffffffffffffffffffffffffffffffffffffffff\n      and\n      0xffffffffffffffffffffffffffffffffffffffff\n      and\n      dup2\n      mstore\n      0x20\n      add\n      swap1\n      dup2\n      mstore\n      0x20\n      add\n      0x00\n      keccak256\n      sload\n        /* \"contracts/MappingContract.sol\":370:401  balances[msg.sender] >= _amount */\n      lt\n      iszero\n        /* \"contracts/MappingContract.sol\":362:425  require(balances[msg.sender] >= _amount, \"Insuficient balance\") */\n      tag_25\n      jumpi\n      mload(0x40)\n      0x08c379a000000000000000000000000000000000000000000000000000000000\n      dup2\n      mstore\n      0x04\n      add\n      tag_26\n      swap1\n      tag_27\n      jump\t// in\n    tag_26:\n      mload(0x40)\n      dup1\n      swap2\n      sub\n      swap1\n      revert\n    tag_25:\n        /* \"contracts/MappingContract.sol\":460:467  _amount */\n      dup1\n        /* \"contracts/MappingContract.sol\":436:444  balances */\n      0x00\n        /* \"contracts/MappingContract.sol\":436:456  balances[msg.sender] */\n      dup1\n        /* \"contracts/MappingContract.sol\":445:455  msg.sender */\n      caller\n        /* \"contracts/MappingContract.sol\":436:456  balances[msg.sender] */\n      0xffffffffffffffffffffffffffffffffffffffff\n      and\n      0xffffffffffffffffffffffffffffffffffffffff\n      and\n      dup2\n      mstore\n      0x20\n      add\n      swap1\n      dup2\n      mstore\n      0x20\n      add\n      0x00\n      keccak256\n      0x00\n        /* \"contracts/MappingContract.sol\":436:467  balances[msg.sender] -= _amount */\n      dup3\n      dup3\n      sload\n      tag_28\n      swap2\n      swap1\n      tag_29\n      jump\t// in\n    tag_28:\n      swap3\n      pop\n      pop\n      dup2\n      swap1\n      sstore\n      pop\n        /* \"contracts/MappingContract.sol\":486:496  msg.sender */\n      caller\n        /* \"contracts/MappingContract.sol\":478:506  payable(msg.sender).transfer */\n      0xffffffffffffffffffffffffffffffffffffffff\n      and\n        /* \"contracts/MappingContract.sol\":478:515  payable(msg.sender).transfer(_amount) */\n      0x08fc\n        /* \"contracts/MappingContract.sol\":507:514  _amount */\n      dup3\n        /* \"contracts/MappingContract.sol\":478:515  payable(msg.sender).transfer(_amount) */\n      swap1\n      dup2\n      iszero\n      mul\n      swap1\n      mload(0x40)\n      0x00\n      mload(0x40)\n      dup1\n      dup4\n      sub\n      dup2\n      dup6\n      dup9\n      dup9\n      call\n      swap4\n      pop\n      pop\n      pop\n      pop\n      iszero\n      dup1\n      iszero\n      tag_31\n      jumpi\n      returndatasize\n      0x00\n      dup1\n      returndatacopy\n      revert(0x00, returndatasize)\n    tag_31:\n      pop\n        /* \"contracts/MappingContract.sol\":312:523  function withdraw(uint _amount) public {... */\n      pop\n      jump\t// out\n        /* \"contracts/MappingContract.sol\":557:654  function checkBalance() public view returns (uint) {... */\n    tag_20:\n        /* \"contracts/MappingContract.sol\":602:606  uint */\n      0x00\n        /* \"contracts/MappingContract.sol\":626:634  balances */\n      dup1\n        /* \"contracts/MappingContract.sol\":626:646  balances[msg.sender] */\n      0x00\n        /* \"contracts/MappingContract.sol\":635:645  msg.sender */\n      caller\n        /* \"contracts/MappingContract.sol\":626:646  balances[msg.sender] */\n      0xffffffffffffffffffffffffffffffffffffffff\n      and\n      0xffffffffffffffffffffffffffffffffffffffff\n      and\n      dup2\n      mstore\n      0x20\n      add\n      swap1\n      dup2\n      mstore\n      0x20\n      add\n      0x00\n      keccak256\n      sload\n        /* \"contracts/MappingContract.sol\":619:646  return balances[msg.sender] */\n      swap1\n      pop\n        /* \"contracts/MappingContract.sol\":557:654  function checkBalance() public view returns (uint) {... */\n      swap1\n      jump\t// out\n        /* \"contracts/MappingContract.sol\":185:271  function deposit() public payable {... */\n    tag_23:\n        /* \"contracts/MappingContract.sol\":254:263  msg.value */\n      callvalue\n        /* \"contracts/MappingContract.sol\":230:238  balances */\n      0x00\n        /* \"contracts/MappingContract.sol\":230:250  balances[msg.sender] */\n      dup1\n        /* \"contracts/MappingContract.sol\":239:249  msg.sender */\n      caller\n        /* \"contracts/MappingContract.sol\":230:250  balances[msg.sender] */\n      0xffffffffffffffffffffffffffffffffffffffff\n      and\n      0xffffffffffffffffffffffffffffffffffffffff\n      and\n      dup2\n      mstore\n      0x20\n      add\n      swap1\n      dup2\n      mstore\n      0x20\n      add\n      0x00\n      keccak256\n      0x00\n        /* \"contracts/MappingContract.sol\":230:263  balances[msg.sender] += msg.value */\n      dup3\n      dup3\n      sload\n      tag_34\n      swap2\n      swap1\n      tag_35\n      jump\t// in\n    tag_34:\n      swap3\n      pop\n      pop\n      dup2\n      swap1\n      sstore\n      pop\n        /* \"contracts/MappingContract.sol\":185:271  function deposit() public payable {... */\n      jump\t// out\n        /* \"#utility.yul\":88:205   */\n    tag_37:\n        /* \"#utility.yul\":197:198   */\n      0x00\n        /* \"#utility.yul\":194:195   */\n      dup1\n        /* \"#utility.yul\":187:199   */\n      revert\n        /* \"#utility.yul\":334:460   */\n    tag_39:\n        /* \"#utility.yul\":371:378   */\n      0x00\n        /* \"#utility.yul\":411:453   */\n      0xffffffffffffffffffffffffffffffffffffffff\n        /* \"#utility.yul\":404:409   */\n      dup3\n        /* \"#utility.yul\":400:454   */\n      and\n        /* \"#utility.yul\":389:454   */\n      swap1\n      pop\n        /* \"#utility.yul\":334:460   */\n      swap2\n      swap1\n      pop\n      jump\t// out\n        /* \"#utility.yul\":466:562   */\n    tag_40:\n        /* \"#utility.yul\":503:510   */\n      0x00\n        /* \"#utility.yul\":532:556   */\n      tag_57\n        /* \"#utility.yul\":550:555   */\n      dup3\n        /* \"#utility.yul\":532:556   */\n      tag_39\n      jump\t// in\n    tag_57:\n        /* \"#utility.yul\":521:556   */\n      swap1\n      pop\n        /* \"#utility.yul\":466:562   */\n      swap2\n      swap1\n      pop\n      jump\t// out\n        /* \"#utility.yul\":568:690   */\n    tag_41:\n        /* \"#utility.yul\":641:665   */\n      tag_59\n        /* \"#utility.yul\":659:664   */\n      dup2\n        /* \"#utility.yul\":641:665   */\n      tag_40\n      jump\t// in\n    tag_59:\n        /* \"#utility.yul\":634:639   */\n      dup2\n        /* \"#utility.yul\":631:666   */\n      eq\n        /* \"#utility.yul\":621:684   */\n      tag_60\n      jumpi\n        /* \"#utility.yul\":680:681   */\n      0x00\n        /* \"#utility.yul\":677:678   */\n      dup1\n        /* \"#utility.yul\":670:682   */\n      revert\n        /* \"#utility.yul\":621:684   */\n    tag_60:\n        /* \"#utility.yul\":568:690   */\n      pop\n      jump\t// out\n        /* \"#utility.yul\":696:835   */\n    tag_42:\n        /* \"#utility.yul\":742:747   */\n      0x00\n        /* \"#utility.yul\":780:786   */\n      dup2\n        /* \"#utility.yul\":767:787   */\n      calldataload\n        /* \"#utility.yul\":758:787   */\n      swap1\n      pop\n        /* \"#utility.yul\":796:829   */\n      tag_62\n        /* \"#utility.yul\":823:828   */\n      dup2\n        /* \"#utility.yul\":796:829   */\n      tag_41\n      jump\t// in\n    tag_62:\n        /* \"#utility.yul\":696:835   */\n      swap3\n      swap2\n      pop\n      pop\n      jump\t// out\n        /* \"#utility.yul\":841:1170   */\n    tag_9:\n        /* \"#utility.yul\":900:906   */\n      0x00\n        /* \"#utility.yul\":949:951   */\n      0x20\n        /* \"#utility.yul\":937:946   */\n      dup3\n        /* \"#utility.yul\":928:935   */\n      dup5\n        /* \"#utility.yul\":924:947   */\n      sub\n        /* \"#utility.yul\":920:952   */\n      slt\n        /* \"#utility.yul\":917:1036   */\n      iszero\n      tag_64\n      jumpi\n        /* \"#utility.yul\":955:1034   */\n      tag_65\n      tag_37\n      jump\t// in\n    tag_65:\n        /* \"#utility.yul\":917:1036   */\n    tag_64:\n        /* \"#utility.yul\":1075:1076   */\n      0x00\n        /* \"#utility.yul\":1100:1153   */\n      tag_66\n        /* \"#utility.yul\":1145:1152   */\n      dup5\n        /* \"#utility.yul\":1136:1142   */\n      dup3\n        /* \"#utility.yul\":1125:1134   */\n      dup6\n        /* \"#utility.yul\":1121:1143   */\n      add\n        /* \"#utility.yul\":1100:1153   */\n      tag_42\n      jump\t// in\n    tag_66:\n        /* \"#utility.yul\":1090:1153   */\n      swap2\n      pop\n        /* \"#utility.yul\":1046:1163   */\n      pop\n        /* \"#utility.yul\":841:1170   */\n      swap3\n      swap2\n      pop\n      pop\n      jump\t// out\n        /* \"#utility.yul\":1176:1253   */\n    tag_43:\n        /* \"#utility.yul\":1213:1220   */\n      0x00\n        /* \"#utility.yul\":1242:1247   */\n      dup2\n        /* \"#utility.yul\":1231:1247   */\n      swap1\n      pop\n        /* \"#utility.yul\":1176:1253   */\n      swap2\n      swap1\n      pop\n      jump\t// out\n        /* \"#utility.yul\":1259:1377   */\n    tag_44:\n        /* \"#utility.yul\":1346:1370   */\n      tag_69\n        /* \"#utility.yul\":1364:1369   */\n      dup2\n        /* \"#utility.yul\":1346:1370   */\n      tag_43\n      jump\t// in\n    tag_69:\n        /* \"#utility.yul\":1341:1344   */\n      dup3\n        /* \"#utility.yul\":1334:1371   */\n      mstore\n        /* \"#utility.yul\":1259:1377   */\n      pop\n      pop\n      jump\t// out\n        /* \"#utility.yul\":1383:1605   */\n    tag_12:\n        /* \"#utility.yul\":1476:1480   */\n      0x00\n        /* \"#utility.yul\":1514:1516   */\n      0x20\n        /* \"#utility.yul\":1503:1512   */\n      dup3\n        /* \"#utility.yul\":1499:1517   */\n      add\n        /* \"#utility.yul\":1491:1517   */\n      swap1\n      pop\n        /* \"#utility.yul\":1527:1598   */\n      tag_71\n        /* \"#utility.yul\":1595:1596   */\n      0x00\n        /* \"#utility.yul\":1584:1593   */\n      dup4\n        /* \"#utility.yul\":1580:1597   */\n      add\n        /* \"#utility.yul\":1571:1577   */\n      dup5\n        /* \"#utility.yul\":1527:1598   */\n      tag_44\n      jump\t// in\n    tag_71:\n        /* \"#utility.yul\":1383:1605   */\n      swap3\n      swap2\n      pop\n      pop\n      jump\t// out\n        /* \"#utility.yul\":1611:1733   */\n    tag_45:\n        /* \"#utility.yul\":1684:1708   */\n      tag_73\n        /* \"#utility.yul\":1702:1707   */\n      dup2\n        /* \"#utility.yul\":1684:1708   */\n      tag_43\n      jump\t// in\n    tag_73:\n        /* \"#utility.yul\":1677:1682   */\n      dup2\n        /* \"#utility.yul\":1674:1709   */\n      eq\n        /* \"#utility.yul\":1664:1727   */\n      tag_74\n      jumpi\n        /* \"#utility.yul\":1723:1724   */\n      0x00\n        /* \"#utility.yul\":1720:1721   */\n      dup1\n        /* \"#utility.yul\":1713:1725   */\n      revert\n        /* \"#utility.yul\":1664:1727   */\n    tag_74:\n        /* \"#utility.yul\":1611:1733   */\n      pop\n      jump\t// out\n        /* \"#utility.yul\":1739:1878   */\n    tag_46:\n        /* \"#utility.yul\":1785:1790   */\n      0x00\n        /* \"#utility.yul\":1823:1829   */\n      dup2\n        /* \"#utility.yul\":1810:1830   */\n      calldataload\n        /* \"#utility.yul\":1801:1830   */\n      swap1\n      pop\n        /* \"#utility.yul\":1839:1872   */\n      tag_76\n        /* \"#utility.yul\":1866:1871   */\n      dup2\n        /* \"#utility.yul\":1839:1872   */\n      tag_45\n      jump\t// in\n    tag_76:\n        /* \"#utility.yul\":1739:1878   */\n      swap3\n      swap2\n      pop\n      pop\n      jump\t// out\n        /* \"#utility.yul\":1884:2213   */\n    tag_16:\n        /* \"#utility.yul\":1943:1949   */\n      0x00\n        /* \"#utility.yul\":1992:1994   */\n      0x20\n        /* \"#utility.yul\":1980:1989   */\n      dup3\n        /* \"#utility.yul\":1971:1978   */\n      dup5\n        /* \"#utility.yul\":1967:1990   */\n      sub\n        /* \"#utility.yul\":1963:1995   */\n      slt\n        /* \"#utility.yul\":1960:2079   */\n      iszero\n      tag_78\n      jumpi\n        /* \"#utility.yul\":1998:2077   */\n      tag_79\n      tag_37\n      jump\t// in\n    tag_79:\n        /* \"#utility.yul\":1960:2079   */\n    tag_78:\n        /* \"#utility.yul\":2118:2119   */\n      0x00\n        /* \"#utility.yul\":2143:2196   */\n      tag_80\n        /* \"#utility.yul\":2188:2195   */\n      dup5\n        /* \"#utility.yul\":2179:2185   */\n      dup3\n        /* \"#utility.yul\":2168:2177   */\n      dup6\n        /* \"#utility.yul\":2164:2186   */\n      add\n        /* \"#utility.yul\":2143:2196   */\n      tag_46\n      jump\t// in\n    tag_80:\n        /* \"#utility.yul\":2133:2196   */\n      swap2\n      pop\n        /* \"#utility.yul\":2089:2206   */\n      pop\n        /* \"#utility.yul\":1884:2213   */\n      swap3\n      swap2\n      pop\n      pop\n      jump\t// out\n        /* \"#utility.yul\":2219:2388   */\n    tag_47:\n        /* \"#utility.yul\":2303:2314   */\n      0x00\n        /* \"#utility.yul\":2337:2343   */\n      dup3\n        /* \"#utility.yul\":2332:2335   */\n      dup3\n        /* \"#utility.yul\":2325:2344   */\n      mstore\n        /* \"#utility.yul\":2377:2381   */\n      0x20\n        /* \"#utility.yul\":2372:2375   */\n      dup3\n        /* \"#utility.yul\":2368:2382   */\n      add\n        /* \"#utility.yul\":2353:2382   */\n      swap1\n      pop\n        /* \"#utility.yul\":2219:2388   */\n      swap3\n      swap2\n      pop\n      pop\n      jump\t// out\n        /* \"#utility.yul\":2394:2563   */\n    tag_48:\n        /* \"#utility.yul\":2534:2555   */\n      0x496e737566696369656e742062616c616e636500000000000000000000000000\n        /* \"#utility.yul\":2530:2531   */\n      0x00\n        /* \"#utility.yul\":2522:2528   */\n      dup3\n        /* \"#utility.yul\":2518:2532   */\n      add\n        /* \"#utility.yul\":2511:2556   */\n      mstore\n        /* \"#utility.yul\":2394:2563   */\n      pop\n      jump\t// out\n        /* \"#utility.yul\":2569:2935   */\n    tag_49:\n        /* \"#utility.yul\":2711:2714   */\n      0x00\n        /* \"#utility.yul\":2732:2799   */\n      tag_84\n        /* \"#utility.yul\":2796:2798   */\n      0x13\n        /* \"#utility.yul\":2791:2794   */\n      dup4\n        /* \"#utility.yul\":2732:2799   */\n      tag_47\n      jump\t// in\n    tag_84:\n        /* \"#utility.yul\":2725:2799   */\n      swap2\n      pop\n        /* \"#utility.yul\":2808:2901   */\n      tag_85\n        /* \"#utility.yul\":2897:2900   */\n      dup3\n        /* \"#utility.yul\":2808:2901   */\n      tag_48\n      jump\t// in\n    tag_85:\n        /* \"#utility.yul\":2926:2928   */\n      0x20\n        /* \"#utility.yul\":2921:2924   */\n      dup3\n        /* \"#utility.yul\":2917:2929   */\n      add\n        /* \"#utility.yul\":2910:2929   */\n      swap1\n      pop\n        /* \"#utility.yul\":2569:2935   */\n      swap2\n      swap1\n      pop\n      jump\t// out\n        /* \"#utility.yul\":2941:3360   */\n    tag_27:\n        /* \"#utility.yul\":3107:3111   */\n      0x00\n        /* \"#utility.yul\":3145:3147   */\n      0x20\n        /* \"#utility.yul\":3134:3143   */\n      dup3\n        /* \"#utility.yul\":3130:3148   */\n      add\n        /* \"#utility.yul\":3122:3148   */\n      swap1\n      pop\n        /* \"#utility.yul\":3194:3203   */\n      dup2\n        /* \"#utility.yul\":3188:3192   */\n      dup2\n        /* \"#utility.yul\":3184:3204   */\n      sub\n        /* \"#utility.yul\":3180:3181   */\n      0x00\n        /* \"#utility.yul\":3169:3178   */\n      dup4\n        /* \"#utility.yul\":3165:3182   */\n      add\n        /* \"#utility.yul\":3158:3205   */\n      mstore\n        /* \"#utility.yul\":3222:3353   */\n      tag_87\n        /* \"#utility.yul\":3348:3352   */\n      dup2\n        /* \"#utility.yul\":3222:3353   */\n      tag_49\n      jump\t// in\n    tag_87:\n        /* \"#utility.yul\":3214:3353   */\n      swap1\n      pop\n        /* \"#utility.yul\":2941:3360   */\n      swap2\n      swap1\n      pop\n      jump\t// out\n        /* \"#utility.yul\":3366:3546   */\n    tag_50:\n        /* \"#utility.yul\":3414:3491   */\n      0x4e487b7100000000000000000000000000000000000000000000000000000000\n        /* \"#utility.yul\":3411:3412   */\n      0x00\n        /* \"#utility.yul\":3404:3492   */\n      mstore\n        /* \"#utility.yul\":3511:3515   */\n      0x11\n        /* \"#utility.yul\":3508:3509   */\n      0x04\n        /* \"#utility.yul\":3501:3516   */\n      mstore\n        /* \"#utility.yul\":3535:3539   */\n      0x24\n        /* \"#utility.yul\":3532:3533   */\n      0x00\n        /* \"#utility.yul\":3525:3540   */\n      revert\n        /* \"#utility.yul\":3552:3746   */\n    tag_29:\n        /* \"#utility.yul\":3592:3596   */\n      0x00\n        /* \"#utility.yul\":3612:3632   */\n      tag_90\n        /* \"#utility.yul\":3630:3631   */\n      dup3\n        /* \"#utility.yul\":3612:3632   */\n      tag_43\n      jump\t// in\n    tag_90:\n        /* \"#utility.yul\":3607:3632   */\n      swap2\n      pop\n        /* \"#utility.yul\":3646:3666   */\n      tag_91\n        /* \"#utility.yul\":3664:3665   */\n      dup4\n        /* \"#utility.yul\":3646:3666   */\n      tag_43\n      jump\t// in\n    tag_91:\n        /* \"#utility.yul\":3641:3666   */\n      swap3\n      pop\n        /* \"#utility.yul\":3690:3691   */\n      dup3\n        /* \"#utility.yul\":3687:3688   */\n      dup3\n        /* \"#utility.yul\":3683:3692   */\n      sub\n        /* \"#utility.yul\":3675:3692   */\n      swap1\n      pop\n        /* \"#utility.yul\":3714:3715   */\n      dup2\n        /* \"#utility.yul\":3708:3712   */\n      dup2\n        /* \"#utility.yul\":3705:3716   */\n      gt\n        /* \"#utility.yul\":3702:3739   */\n      iszero\n      tag_92\n      jumpi\n        /* \"#utility.yul\":3719:3737   */\n      tag_93\n      tag_50\n      jump\t// in\n    tag_93:\n        /* \"#utility.yul\":3702:3739   */\n    tag_92:\n        /* \"#utility.yul\":3552:3746   */\n      swap3\n      swap2\n      pop\n      pop\n      jump\t// out\n        /* \"#utility.yul\":3752:3943   */\n    tag_35:\n        /* \"#utility.yul\":3792:3795   */\n      0x00\n        /* \"#utility.yul\":3811:3831   */\n      tag_95\n        /* \"#utility.yul\":3829:3830   */\n      dup3\n        /* \"#utility.yul\":3811:3831   */\n      tag_43\n      jump\t// in\n    tag_95:\n        /* \"#utility.yul\":3806:3831   */\n      swap2\n      pop\n        /* \"#utility.yul\":3845:3865   */\n      tag_96\n        /* \"#utility.yul\":3863:3864   */\n      dup4\n        /* \"#utility.yul\":3845:3865   */\n      tag_43\n      jump\t// in\n    tag_96:\n        /* \"#utility.yul\":3840:3865   */\n      swap3\n      pop\n        /* \"#utility.yul\":3888:3889   */\n      dup3\n        /* \"#utility.yul\":3885:3886   */\n      dup3\n        /* \"#utility.yul\":3881:3890   */\n      add\n        /* \"#utility.yul\":3874:3890   */\n      swap1\n      pop\n        /* \"#utility.yul\":3909:3912   */\n      dup1\n        /* \"#utility.yul\":3906:3907   */\n      dup3\n        /* \"#utility.yul\":3903:3913   */\n      gt\n        /* \"#utility.yul\":3900:3936   */\n      iszero\n      tag_97\n      jumpi\n        /* \"#utility.yul\":3916:3934   */\n      tag_98\n      tag_50\n      jump\t// in\n    tag_98:\n        /* \"#utility.yul\":3900:3936   */\n    tag_97:\n        /* \"#utility.yul\":3752:3943   */\n      swap3\n      swap2\n      pop\n      pop\n      jump\t// out\n\n    auxdata: 0xa2646970667358221220413168407e4f734e9061260d95549e2b23700d4fa42f0e29d16b7d998fc93f7664736f6c634300081a0033\n}\n",
				"bytecode": {
					"linkReferences": {},
					"object": "6080604052348015600e575f80fd5b506104ed8061001c5f395ff3fe60806040526004361061003e575f3560e01c806327e235e3146100425780632e1a7d4d1461007e578063c71daccb146100a6578063d0e30db0146100d0575b5f80fd5b34801561004d575f80fd5b50610068600480360381019061006391906102fb565b6100da565b604051610075919061033e565b60405180910390f35b348015610089575f80fd5b506100a4600480360381019061009f9190610381565b6100ee565b005b3480156100b1575f80fd5b506100ba610206565b6040516100c7919061033e565b60405180910390f35b6100d8610249565b005b5f602052805f5260405f205f915090505481565b805f803373ffffffffffffffffffffffffffffffffffffffff1673ffffffffffffffffffffffffffffffffffffffff1681526020019081526020015f2054101561016d576040517f08c379a000000000000000000000000000000000000000000000000000000000815260040161016490610406565b60405180910390fd5b805f803373ffffffffffffffffffffffffffffffffffffffff1673ffffffffffffffffffffffffffffffffffffffff1681526020019081526020015f205f8282546101b89190610451565b925050819055503373ffffffffffffffffffffffffffffffffffffffff166108fc8290811502906040515f60405180830381858888f19350505050158015610202573d5f803e3d5ffd5b5050565b5f805f3373ffffffffffffffffffffffffffffffffffffffff1673ffffffffffffffffffffffffffffffffffffffff1681526020019081526020015f2054905090565b345f803373ffffffffffffffffffffffffffffffffffffffff1673ffffffffffffffffffffffffffffffffffffffff1681526020019081526020015f205f8282546102949190610484565b92505081905550565b5f80fd5b5f73ffffffffffffffffffffffffffffffffffffffff82169050919050565b5f6102ca826102a1565b9050919050565b6102da816102c0565b81146102e4575f80fd5b50565b5f813590506102f5816102d1565b92915050565b5f602082840312156103105761030f61029d565b5b5f61031d848285016102e7565b91505092915050565b5f819050919050565b61033881610326565b82525050565b5f6020820190506103515f83018461032f565b92915050565b61036081610326565b811461036a575f80fd5b50565b5f8135905061037b81610357565b92915050565b5f602082840312156103965761039561029d565b5b5f6103a38482850161036d565b91505092915050565b5f82825260208201905092915050565b7f496e737566696369656e742062616c616e6365000000000000000000000000005f82015250565b5f6103f06013836103ac565b91506103fb826103bc565b602082019050919050565b5f6020820190508181035f83015261041d816103e4565b9050919050565b7f4e487b71000000000000000000000000000000000000000000000000000000005f52601160045260245ffd5b5f61045b82610326565b915061046683610326565b925082820390508181111561047e5761047d610424565b5b92915050565b5f61048e82610326565b915061049983610326565b92508282019050808211156104b1576104b0610424565b5b9291505056fea2646970667358221220413168407e4f734e9061260d95549e2b23700d4fa42f0e29d16b7d998fc93f7664736f6c634300081a0033",
					"opcodes": "PUSH1 0x80 PUSH1 0x40 MSTORE CALLVALUE DUP1 ISZERO PUSH1 0xE JUMPI PUSH0 DUP1 REVERT JUMPDEST POP PUSH2 0x4ED DUP1 PUSH2 0x1C PUSH0 CODECOPY PUSH0 RETURN INVALID PUSH1 0x80 PUSH1 0x40 MSTORE PUSH1 0x4 CALLDATASIZE LT PUSH2 0x3E JUMPI PUSH0 CALLDATALOAD PUSH1 0xE0 SHR DUP1 PUSH4 0x27E235E3 EQ PUSH2 0x42 JUMPI DUP1 PUSH4 0x2E1A7D4D EQ PUSH2 0x7E JUMPI DUP1 PUSH4 0xC71DACCB EQ PUSH2 0xA6 JUMPI DUP1 PUSH4 0xD0E30DB0 EQ PUSH2 0xD0 JUMPI JUMPDEST PUSH0 DUP1 REVERT JUMPDEST CALLVALUE DUP1 ISZERO PUSH2 0x4D JUMPI PUSH0 DUP1 REVERT JUMPDEST POP PUSH2 0x68 PUSH1 0x4 DUP1 CALLDATASIZE SUB DUP2 ADD SWAP1 PUSH2 0x63 SWAP2 SWAP1 PUSH2 0x2FB JUMP JUMPDEST PUSH2 0xDA JUMP JUMPDEST PUSH1 0x40 MLOAD PUSH2 0x75 SWAP2 SWAP1 PUSH2 0x33E JUMP JUMPDEST PUSH1 0x40 MLOAD DUP1 SWAP2 SUB SWAP1 RETURN JUMPDEST CALLVALUE DUP1 ISZERO PUSH2 0x89 JUMPI PUSH0 DUP1 REVERT JUMPDEST POP PUSH2 0xA4 PUSH1 0x4 DUP1 CALLDATASIZE SUB DUP2 ADD SWAP1 PUSH2 0x9F SWAP2 SWAP1 PUSH2 0x381 JUMP JUMPDEST PUSH2 0xEE JUMP JUMPDEST STOP JUMPDEST CALLVALUE DUP1 ISZERO PUSH2 0xB1 JUMPI PUSH0 DUP1 REVERT JUMPDEST POP PUSH2 0xBA PUSH2 0x206 JUMP JUMPDEST PUSH1 0x40 MLOAD PUSH2 0xC7 SWAP2 SWAP1 PUSH2 0x33E JUMP JUMPDEST PUSH1 0x40 MLOAD DUP1 SWAP2 SUB SWAP1 RETURN JUMPDEST PUSH2 0xD8 PUSH2 0x249 JUMP JUMPDEST STOP JUMPDEST PUSH0 PUSH1 0x20 MSTORE DUP1 PUSH0 MSTORE PUSH1 0x40 PUSH0 KECCAK256 PUSH0 SWAP2 POP SWAP1 POP SLOAD DUP2 JUMP JUMPDEST DUP1 PUSH0 DUP1 CALLER PUSH20 0xFFFFFFFFFFFFFFFFFFFFFFFFFFFFFFFFFFFFFFFF AND PUSH20 0xFFFFFFFFFFFFFFFFFFFFFFFFFFFFFFFFFFFFFFFF AND DUP2 MSTORE PUSH1 0x20 ADD SWAP1 DUP2 MSTORE PUSH1 0x20 ADD PUSH0 KECCAK256 SLOAD LT ISZERO PUSH2 0x16D JUMPI PUSH1 0x40 MLOAD PUSH32 0x8C379A000000000000000000000000000000000000000000000000000000000 DUP2 MSTORE PUSH1 0x4 ADD PUSH2 0x164 SWAP1 PUSH2 0x406 JUMP JUMPDEST PUSH1 0x40 MLOAD DUP1 SWAP2 SUB SWAP1 REVERT JUMPDEST DUP1 PUSH0 DUP1 CALLER PUSH20 0xFFFFFFFFFFFFFFFFFFFFFFFFFFFFFFFFFFFFFFFF AND PUSH20 0xFFFFFFFFFFFFFFFFFFFFFFFFFFFFFFFFFFFFFFFF AND DUP2 MSTORE PUSH1 0x20 ADD SWAP1 DUP2 MSTORE PUSH1 0x20 ADD PUSH0 KECCAK256 PUSH0 DUP3 DUP3 SLOAD PUSH2 0x1B8 SWAP2 SWAP1 PUSH2 0x451 JUMP JUMPDEST SWAP3 POP POP DUP2 SWAP1 SSTORE POP CALLER PUSH20 0xFFFFFFFFFFFFFFFFFFFFFFFFFFFFFFFFFFFFFFFF AND PUSH2 0x8FC DUP3 SWAP1 DUP2 ISZERO MUL SWAP1 PUSH1 0x40 MLOAD PUSH0 PUSH1 0x40 MLOAD DUP1 DUP4 SUB DUP2 DUP6 DUP9 DUP9 CALL SWAP4 POP POP POP POP ISZERO DUP1 ISZERO PUSH2 0x202 JUMPI RETURNDATASIZE PUSH0 DUP1 RETURNDATACOPY RETURNDATASIZE PUSH0 REVERT JUMPDEST POP POP JUMP JUMPDEST PUSH0 DUP1 PUSH0 CALLER PUSH20 0xFFFFFFFFFFFFFFFFFFFFFFFFFFFFFFFFFFFFFFFF AND PUSH20 0xFFFFFFFFFFFFFFFFFFFFFFFFFFFFFFFFFFFFFFFF AND DUP2 MSTORE PUSH1 0x20 ADD SWAP1 DUP2 MSTORE PUSH1 0x20 ADD PUSH0 KECCAK256 SLOAD SWAP1 POP SWAP1 JUMP JUMPDEST CALLVALUE PUSH0 DUP1 CALLER PUSH20 0xFFFFFFFFFFFFFFFFFFFFFFFFFFFFFFFFFFFFFFFF AND PUSH20 0xFFFFFFFFFFFFFFFFFFFFFFFFFFFFFFFFFFFFFFFF AND DUP2 MSTORE PUSH1 0x20 ADD SWAP1 DUP2 MSTORE PUSH1 0x20 ADD PUSH0 KECCAK256 PUSH0 DUP3 DUP3 SLOAD PUSH2 0x294 SWAP2 SWAP1 PUSH2 0x484 JUMP JUMPDEST SWAP3 POP POP DUP2 SWAP1 SSTORE POP JUMP JUMPDEST PUSH0 DUP1 REVERT JUMPDEST PUSH0 PUSH20 0xFFFFFFFFFFFFFFFFFFFFFFFFFFFFFFFFFFFFFFFF DUP3 AND SWAP1 POP SWAP2 SWAP1 POP JUMP JUMPDEST PUSH0 PUSH2 0x2CA DUP3 PUSH2 0x2A1 JUMP JUMPDEST SWAP1 POP SWAP2 SWAP1 POP JUMP JUMPDEST PUSH2 0x2DA DUP2 PUSH2 0x2C0 JUMP JUMPDEST DUP2 EQ PUSH2 0x2E4 JUMPI PUSH0 DUP1 REVERT JUMPDEST POP JUMP JUMPDEST PUSH0 DUP2 CALLDATALOAD SWAP1 POP PUSH2 0x2F5 DUP2 PUSH2 0x2D1 JUMP JUMPDEST SWAP3 SWAP2 POP POP JUMP JUMPDEST PUSH0 PUSH1 0x20 DUP3 DUP5 SUB SLT ISZERO PUSH2 0x310 JUMPI PUSH2 0x30F PUSH2 0x29D JUMP JUMPDEST JUMPDEST PUSH0 PUSH2 0x31D DUP5 DUP3 DUP6 ADD PUSH2 0x2E7 JUMP JUMPDEST SWAP2 POP POP SWAP3 SWAP2 POP POP JUMP JUMPDEST PUSH0 DUP2 SWAP1 POP SWAP2 SWAP1 POP JUMP JUMPDEST PUSH2 0x338 DUP2 PUSH2 0x326 JUMP JUMPDEST DUP3 MSTORE POP POP JUMP JUMPDEST PUSH0 PUSH1 0x20 DUP3 ADD SWAP1 POP PUSH2 0x351 PUSH0 DUP4 ADD DUP5 PUSH2 0x32F JUMP JUMPDEST SWAP3 SWAP2 POP POP JUMP JUMPDEST PUSH2 0x360 DUP2 PUSH2 0x326 JUMP JUMPDEST DUP2 EQ PUSH2 0x36A JUMPI PUSH0 DUP1 REVERT JUMPDEST POP JUMP JUMPDEST PUSH0 DUP2 CALLDATALOAD SWAP1 POP PUSH2 0x37B DUP2 PUSH2 0x357 JUMP JUMPDEST SWAP3 SWAP2 POP POP JUMP JUMPDEST PUSH0 PUSH1 0x20 DUP3 DUP5 SUB SLT ISZERO PUSH2 0x396 JUMPI PUSH2 0x395 PUSH2 0x29D JUMP JUMPDEST JUMPDEST PUSH0 PUSH2 0x3A3 DUP5 DUP3 DUP6 ADD PUSH2 0x36D JUMP JUMPDEST SWAP2 POP POP SWAP3 SWAP2 POP POP JUMP JUMPDEST PUSH0 DUP3 DUP3 MSTORE PUSH1 0x20 DUP3 ADD SWAP1 POP SWAP3 SWAP2 POP POP JUMP JUMPDEST PUSH32 0x496E737566696369656E742062616C616E636500000000000000000000000000 PUSH0 DUP3 ADD MSTORE POP JUMP JUMPDEST PUSH0 PUSH2 0x3F0 PUSH1 0x13 DUP4 PUSH2 0x3AC JUMP JUMPDEST SWAP2 POP PUSH2 0x3FB DUP3 PUSH2 0x3BC JUMP JUMPDEST PUSH1 0x20 DUP3 ADD SWAP1 POP SWAP2 SWAP1 POP JUMP JUMPDEST PUSH0 PUSH1 0x20 DUP3 ADD SWAP1 POP DUP2 DUP2 SUB PUSH0 DUP4 ADD MSTORE PUSH2 0x41D DUP2 PUSH2 0x3E4 JUMP JUMPDEST SWAP1 POP SWAP2 SWAP1 POP JUMP JUMPDEST PUSH32 0x4E487B7100000000000000000000000000000000000000000000000000000000 PUSH0 MSTORE PUSH1 0x11 PUSH1 0x4 MSTORE PUSH1 0x24 PUSH0 REVERT JUMPDEST PUSH0 PUSH2 0x45B DUP3 PUSH2 0x326 JUMP JUMPDEST SWAP2 POP PUSH2 0x466 DUP4 PUSH2 0x326 JUMP JUMPDEST SWAP3 POP DUP3 DUP3 SUB SWAP1 POP DUP2 DUP2 GT ISZERO PUSH2 0x47E JUMPI PUSH2 0x47D PUSH2 0x424 JUMP JUMPDEST JUMPDEST SWAP3 SWAP2 POP POP JUMP JUMPDEST PUSH0 PUSH2 0x48E DUP3 PUSH2 0x326 JUMP JUMPDEST SWAP2 POP PUSH2 0x499 DUP4 PUSH2 0x326 JUMP JUMPDEST SWAP3 POP DUP3 DUP3 ADD SWAP1 POP DUP1 DUP3 GT ISZERO PUSH2 0x4B1 JUMPI PUSH2 0x4B0 PUSH2 0x424 JUMP JUMPDEST JUMPDEST SWAP3 SWAP2 POP POP JUMP INVALID LOG2 PUSH5 0x6970667358 0x22 SLT KECCAK256 COINBASE BALANCE PUSH9 0x407E4F734E9061260D SWAP6 SLOAD SWAP15 0x2B 0x23 PUSH17 0xD4FA42F0E29D16B7D998FC93F7664736F PUSH13 0x634300081A0033000000000000 "
				},
				"gasEstimates": {
					"creation": {
						"codeDepositCost": "252200",
						"executionCost": "292",
						"totalCost": "252492"
					},
					"external": {
						"balances(address)": "2779",
						"checkBalance()": "2541",
						"deposit()": "infinite",
						"withdraw(uint256)": "infinite"
					}
				},
				"methodIdentifiers": {
					"balances(address)": "27e235e3",
					"checkBalance()": "c71daccb",
					"deposit()": "d0e30db0",
					"withdraw(uint256)": "2e1a7d4d"
				}
			},
			"storageLayout": {
				"storage": [
					{
						"astId": 5,
						"contract": "contracts/MappingContract.sol:SimpleBankWithdraw",
						"label": "balances",
						"offset": 0,
						"slot": "0",
						"type": "t_mapping(t_address,t_uint256)"
					}
				],
				"types": {
					"t_address": {
						"encoding": "inplace",
						"label": "address",
						"numberOfBytes": "20"
					},
					"t_mapping(t_address,t_uint256)": {
						"encoding": "mapping",
						"key": "t_address",
						"label": "mapping(address => uint256)",
						"numberOfBytes": "32",
						"value": "t_uint256"
					},
					"t_uint256": {
						"encoding": "inplace",
						"label": "uint256",
						"numberOfBytes": "32"
					}
				}
			},
			"userdoc": {
				"kind": "user",
				"methods": {},
				"version": 1
			}
		}
	}
}